:100000000C945D000C9485000C9485000C94850084
:100010000C9485000C9485000C9485000C9485004C
:100020000C9485000C9485000C9485000C9485003C
:100030000C9485000C9485000C9485000C9485002C
:100040000C94E0030C9485000C94AE030C9488038C
:100050000C9485000C9485000C9485000C9485000C
:100060000C9485000C9485000000000025002800F9
:100070002B0000000008000201000003040700003C
:1000800000000000000000000000240027002A00FB
:10009000010204081020408001020408102001021F
:1000A00004081020040404040404040402020202EC
:1000B0000202030303030303510811241FBECFEF01
:1000C000D8E0DEBFCDBF11E0A0E0B1E0E6E1F1E1B4
:1000D00002C005900D92AC31B107D9F722E0ACE136
:1000E000B1E001C01D92A23EB207E1F710E0CDE5FC
:1000F000D0E004C02197FE010E947E08CC35D107D4
:10010000C9F70E942A040C9489080C940000CF922D
:10011000DF92EF92FF920F931F93CF93DF936C01C7
:100120007A018B01C0E0D0E0CE15DF0581F0D80167
:100130006D918D01D601ED91FC910190F081E02D42
:10014000C6010995892B11F02196EECF7E01C701DA
:10015000DF91CF911F910F91FF90EF90DF90CF90A3
:100160000895089580E090E00895FC01538D448D3A
:10017000252F30E0842F90E0821B930B541710F052
:10018000CF96089501970895FC01918D828D98175F
:1001900061F0828DDF01A80FB11D5D968C91928D6B
:1001A0009F5F9F73928F90E008958FEF9FEF089568
:1001B000FC01918D828D981731F0828DE80FF11D31
:1001C000858D90E008958FEF9FEF0895FC01918D4C
:1001D000228D892F90E0805C9F4F821B91098F7345
:1001E0009927089585E492E00E94E60021E0892B9A
:1001F00009F420E0822F0895FC01848DDF01A80F0F
:10020000B11DA35ABF4F2C91848D90E001968F733E
:100210009927848FA689B7892C93A089B1898C915D
:10022000837080648C93938D848D981306C00288AC
:10023000F389E02D80818F7D80830895EF92FF9276
:100240000F931F93CF93DF93EC0181E0888F9B8DF9
:100250008C8D981305C0E889F989808185FD26C0B9
:10026000F62E0B8D10E00F5F1F4F0F731127E02E3E
:100270008C8DE8120CC00FB607FCFACFE889F9891B
:10028000808185FFF5CFCE010E94FC00F1CF8B8DE0
:10029000FE01E80FF11DE35AFF4FF0829FB7F8947B
:1002A0000B8FEA89FB89808180620AC09FB7F8942E
:1002B000EE89FF896083E889F98980818370806491
:1002C00080839FBF81E090E0DF91CF911F910F91DC
:1002D000FF90EF900895682F85E492E00C941E0142
:1002E000CF93DF93EC01888D8823C9F0EA89FB89DD
:1002F000808185FD05C0A889B9898C9186FD0FC0D4
:100300000FB607FCF5CF808185FFF2CFA889B989A8
:100310008C9185FFEDCFCE010E94FC00E7CFDF91ED
:10032000CF91089580E090E0892B29F00E94F2009F
:1003300081110C940000089590E0FC01EE58FF4FED
:100340002491FC01E057FF4F3491FC01EC55FF4F25
:10035000E491EE2309F43CC0222339F1233091F0DB
:1003600038F42130A9F0223001F584B58F7D12C018
:10037000273091F02830A1F02430B9F4809180002A
:100380008F7D03C0809180008F77809380000DC0A7
:1003900084B58F7784BD09C08091B0008F7703C08A
:1003A0008091B0008F7D8093B000F0E0EE0FFF1FD2
:1003B000E859FF4FA591B4919FB7F894611104C01B
:1003C0008C913095382302C0EC913E2B3C939FBF1B
:1003D0000895CF93DF9390E0FC01E057FF4F249105
:1003E000FC01EC55FF4F8491882361F190E0880F68
:1003F000991FFC01EA57FF4FC591D491FC01E859C0
:10040000FF4FA591B491611109C09FB7F8948881FD
:10041000209582238883EC912E230BC0623061F4F7
:100420009FB7F8948881322F309583238883EC918D
:100430002E2B2C939FBF06C08FB7F894E8812E2BEC
:1004400028838FBFDF91CF9108953FB7F8948091B3
:100450001D0190911E01A0911F01B091200126B5B0
:10046000A89B05C02F3F19F00196A11DB11D3FBFEC
:10047000BA2FA92F982F8827820F911DA11DB11D7A
:10048000BC01CD0142E0660F771F881F991F4A9576
:10049000D1F708958F929F92AF92BF92CF92DF9241
:1004A000EF92FF926B017C010E9425024B015C01DF
:1004B000C114D104E104F104F1F00E942502DC0131
:1004C000CB0188199909AA09BB09883E9340A10567
:1004D000B10570F321E0C21AD108E108F10888EEF5
:1004E000880E83E0981EA11CB11CC114D104E10444
:1004F000F10419F7DDCFFF90EF90DF90CF90BF9020
:10050000AF909F908F9008951F93CF93DF93182FF4
:10051000C3E0D0E061E0812F0E949C016EE170E0B9
:1005200080E090E00E944A0260E0812F0E949C01DE
:100530006EE170E080E090E00E944A02219751F75E
:10054000DF91CF911F9108958091410290914202D5
:100550000196909342028093410285E10C946B01D5
:10056000209134013091350180913F0290914002F9
:100570002032310511F4807F08952034310511F4C3
:10058000807E08952038310511F4807C089521156E
:10059000314009F48078089585E492E00E94E600F5
:1005A000892BD1F385E492E00E94C4000895CF9393
:1005B000C82F0E94CC02803241F484E10E946B017A
:1005C0008C2F0E946B0180E10AC0809141029091C2
:1005D00042020196909342028093410285E1CF91BD
:1005E0000C946B010E94CC02803229F484E10E94B9
:1005F0006B0180E10AC08091410290914202019614
:10060000909342028093410285E10C946B010F9319
:100610001F93CF93DF938C01CCE3D1E0CE018C53B9
:1006200091408017910724F40E94CC028993F6CF61
:10063000DF91CF911F910F9108958EBD00000DB4F1
:1006400007FEFDCF8EB508951F93CF93DF93162F2E
:10065000D42FC22F0E941D03812F0E941D038D2FB6
:100660000E941D038C2FDF91CF911F910C941D03CD
:10067000EF92FF920F931F93CF93DF93EC018B01C7
:10068000CB010E94070360E087E00E949C018CE39D
:10069000E82E81E0F82E0C0F1D1FC017D10781F046
:1006A000F70121917F014C2F6D2F80EC0E942403D4
:1006B0006DE270E080E090E00E944A022196EDCF6A
:1006C00061E087E00E949C0180E1DF91CF911F9162
:1006D0000F91FF90EF900895CF93DF93D82FC92FFC
:1006E00060E087E00E949C0120E04D2F6C2F8CE49D
:1006F0000E9424036EE170E080E090E00E944A02D4
:1007000061E087E0DF91CF910C949C010E94840806
:100710001F920F920FB60F9211242F933F934F9376
:100720005F936F937F938F939F93AF93BF93EF9359
:10073000FF9385E492E00E94FC00FF91EF91BF914E
:10074000AF919F918F917F916F915F914F913F9169
:100750002F910F900FBE0F901F9018951F920F9220
:100760000FB60F9211242F938F939F93EF93FF93C4
:10077000E0915502F09156028081E0915B02F09188
:100780005C0282FD12C0908180915E028F5F8F7348
:1007900020915F02821751F0E0915E02F0E0EB5B86
:1007A000FD4F958F80935E0201C08081FF91EF9194
:1007B0009F918F912F910F900FBE0F901F901895C2
:1007C0001F920F920FB60F9211242F933F938F9386
:1007D0009F93AF93BF938091210190912201A091AB
:1007E0002301B091240130911C0123E0230F2D3708
:1007F00020F40196A11DB11D05C026E8230F029625
:10080000A11DB11D20931C01809321019093220111
:10081000A0932301B093240180911D0190911E01AA
:10082000A0911F01B09120010196A11DB11D8093DF
:100830001D0190931E01A0931F01B0932001BF9151
:10084000AF919F918F913F912F910F900FBE0F907D
:100850001F901895789484B5826084BD84B58160BA
:1008600084BD85B5826085BD85B5816085BD80917B
:100870006E00816080936E001092810080918100F3
:1008800082608093810080918100816080938100EB
:10089000809180008160809380008091B1008460AD
:1008A0008093B1008091B00081608093B00080910E
:1008B0007A00846080937A0080917A0082608093CD
:1008C0007A0080917A00816080937A0080917A002A
:1008D000806880937A001092C100E0915502F091F7
:1008E000560282E08083E0915102F0915202108220
:1008F000E0915302F091540287E6808310925D02EA
:10090000E0915902F0915A0286E08083E09157020B
:10091000F0915802808180618083E0915702F091CC
:100920005802808188608083E0915702F0915802DC
:10093000808180688083E0915702F0915802808125
:100940008F7D808361E087E00E94E90187E090E08D
:100950000E94840261E088E00E94E90188E090E062
:100960000E94840261E089E00E94E90189E090E050
:100970000E9484020BE7202E00E0302E8BE8A82E88
:10098000BB24B39488248394912C2EEA422E20E039
:10099000522E3AE9632E30E0732E809143029091FB
:1009A0004402892B11F061E001C060E087E00E9401
:1009B0009C018091410290914202892B11F061E0EB
:1009C00001C060E088E00E949C012FB7F8948091FC
:1009D000210190912201A0912301B09124012FBF08
:1009E00040912501509126016091270170912801C5
:1009F0008C019D01041B150B260B370B08321105CA
:100A00002105310508F46BC08093250190932601E0
:100A1000A0932701B09328019091010180EE890FE6
:100A2000813A28F080910001819580930001109116
:100A30000001190F10930101C12FD0E061E089E09E
:100A40000E94E901111102C060E003C01F3F29F4B8
:100A500061E089E00E949C0142C0F10184918330F1
:100A6000F9F048F48130B9F08230A1F584B58062A4
:100A700084BD18BD34C08730E9F0883019F1843066
:100A800049F580918000806280938000D0938B0034
:100A9000C0938A0024C084B5806884BD17BD1FC080
:100AA00080918000806880938000D0938900C093FB
:100AB000880015C08091B00080688093B0001093CA
:100AC000B3000DC08091B00080628093B00010939D
:100AD000B40005C0C038D1050CF0BACFB5CF85E45D
:100AE00092E00E94E600892B09F4D8C20E94CC0251
:100AF000813509F465C2B0F4813409F44FC040F483
:100B00008033B1F18133C9F1803209F0B5C2AAC294
:100B1000853409F4DBC0803509F4DDC0823409F086
:100B2000ABC251C0813609F454C1C0F4863509F412
:100B300036C2803609F44BC1853509F09DC20E944A
:100B4000CC02C82F0E94CC0290E0982F88278C0FEF
:100B5000911D9093400280933F0260C2843709F454
:100B6000C5C1853709F45DC2843609F085C234C138
:100B7000109242021092410251C20E94CC02803275
:100B800009F070C284E10E946B0147E050E064E12B
:100B900071E085E492E00E94870062C20E94CC026C
:100BA000813859F020F4803861F482E006C282383E
:100BB00031F0833931F483E500C281E0FEC182E186
:100BC000FCC180E0FAC184E190E00E94070320911B
:100BD0003C012093290180913D0180932A0180915D
:100BE0003E0180932B0180913F0180932C018091E5
:100BF000400180932D018091410180932E018091CD
:100C0000420180932F0180914301809330018091B4
:100C10004401809331018091460190E0982F88270C
:100C200030914701830F911D9093330180933201DE
:100C30008091480190E0982F882730914901830FD7
:100C4000911D909335018093340180914A0190E089
:100C5000982F882730914B01830F911D9093370176
:100C60008093360180914C0190E0A0E0B0E0BA2F73
:100C7000A92F982F882730914D01830F911DA11D19
:100C8000B11DDC019927882740914E0150E0542F77
:100C90004427052E000C660B770B840F951FA61FAB
:100CA000B71F30914F01830F911DA11DB11D80937E
:100CB000380190933901A0933A01B0933B0181E050
:100CC000203E08F480E080933E02A8C185E090E0D9
:100CD0000E940703A3C18091430290914402892B93
:100CE00009F09CC160913E028AE00E949C0161E093
:100CF0008AE00E94E901CFB7F89480913D0281110A
:100D000026C0F2018491F3012491E82FF0E0EE0F68
:100D1000FF1FEA57FF4FA591B4919C91822F892321
:100D200021F461E08AE00E949C0161E08AE00E9477
:100D3000E9018CB580618CBD8CB580648CBD61E0AF
:100D40008DE00E94E90161E08BE00E94E901809161
:100D50003D028F5F80933D02CFBF80913C0288238C
:100D600051F08FB7F89490913C02913021F49DB3EB
:100D70009DB39DBB8FBF83E58CBD1DBC60E08DE046
:100D80000E949C0164E170E080E090E00E944A02D1
:100D9000C0913E0261E06C278AE00E949C01C5017F
:100DA0000197F1F76C2F8AE00E949C0162E370E0EA
:100DB00080E090E00E944A0220E040E063E58CEA97
:100DC0000E942403909244028092430227C10E9411
:100DD000CC020E94CC0222C10E94CC02C82F0E94E9
:100DE000CC02D0E0DC2FCC27C80FD11D0E94CC0252
:100DF000863409F043C0CE010E9407030E94CC0252
:100E0000803209F02FC184E10E946B010E94B00280
:100E10006C013CE3E32E31E0F32EC7018C5391408B
:100E20008C179D073CF50E94B0028C159D0531F092
:100E3000C6010E946C030E94B0026C0100913F0247
:100E400010914002F7012081402F612F80E40E9421
:100E50002403F7012181402F612F88E40E9424039D
:100E60000F5F1F4F1093400200933F02F2E0EF0E1E
:100E7000F11CD3CFC6010E946C03F2C0853409F087
:100E80008CC080913601909137018C179D0758F4E2
:100E90008091410290914202019690934202809388
:100EA0004102C1E117C000913F0210914002000FC2
:100EB000111FC132D10548F060E270E0C8010E9404
:100EC0003803005E1F4FA097F4CFBE01C8010E94F7
:100ED0003803C0E10E94CC02803229F484E10E94F0
:100EE0006B018C2FD9C00E94A402D8C00E94CC02F2
:100EF000C82F0E94CC02082F0E94CC02182F0E94FB
:100F0000CC02803219F00E94A402C8C0D0E0DC2FCD
:100F1000CC27C00FD11D84E10E946B01163421F54E
:100F2000E12CF12CEC16FD060CF09AC000913F026A
:100F30001091400220E0402F612F80E20E942403A4
:100F40000E946B0120E0402F612F88E20E94240361
:100F50000E946B010F5F1F4F1093400200933F02EE
:100F600002E0E00EF11CDECF1534B9F400913F022F
:100F700010914002000F111FC00FD11FC017D107E1
:100F800009F46EC02FEF402F612F80EA0E942403E6
:100F90000E946B010F5F1F4FF1CF81E17DC084E0A4
:100FA00090E00E94070320913F0140913E01609133
:100FB0003D0180913C010E9424030E94D7026EC033
:100FC00010924202109241029FB7F89480913D0224
:100FD000882319F0815080933D0280913D02811158
:100FE00005C08CB58F7B8CBD10923C029FBF60E02A
:100FF0008BE00E94E90160E08DE00E94E9016091D0
:101000003E0281E068278AE00E949C0160E08AE05D
:101010000E94E90110924402109243020E94F202DF
:101020003DC00E94CC028032E9F484E10E946B0151
:1010300020E040E060E080E30E9424030E946B0116
:1010400020E041E060E080E30E9424030E946B0105
:1010500020E042E060E080E30E9424030E946B01F4
:1010600080E11AC0809141029091420201969093D2
:101070004202809341020FC080914102909142024E
:10108000019690934202809341020E94CC028032EA
:1010900011F482E101C085E10E946B010E9492017E
:1010A0007CCCE5E4F2E01382128288EE93E0A0E0CB
:1010B000B0E084839583A683B78386E091E0918333
:1010C000808385EC90E09587848784EC90E0978717
:1010D000868780EC90E0918B808B81EC90E0938B05
:1010E000828B82EC90E0958B848B86EC90E0978BE2
:1010F000868B118E128E138E148E0895EE0FFF1FA5
:101100000590F491E02D099481E090E0F8940C941E
:061110008908F894FFCFEE
:101116000880000000001E018700B5007001E6008F
:0C112600C400D80041565220495350002C
:00000001FF
